:1000000030240020154E0000114E0000114E00005B
:1000100000000000000000000000000000000000E0
:10002000000000000000000000000000114E000071
:100030000000000000000000114E0000114E000002
:10004000114E0000114E0000114E0000114E000034
:10005000A52F0000114E0000114E0000114E0000AF
:10006000114E000091350000A1350000B1350000AF
:10007000C1350000D1350000E1350000E14D000040
:10008000F14D0000014E0000114E0000114E000025
:10009000114E00000000000000000000114E0000A2
:1000A000114E0000114E0000114E0000114E0000D4
:1000B0000000000010B5064C2378002B07D1054B3B
:1000C000002B02D0044800E000BF0123237010BDC4
:1000D0007800002000000000B88F0000084B10B529
:1000E000002B03D00749084800E000BF0748036819
:1000F000002B00D110BD064B002BFBD09847F9E731
:10010000000000007C000020B88F0000B88F0000C5
:100110000000000070B50020084B98470500084C0F
:10012000FA218900A047074B186007492800A0471B
:10013000064B18600522064B1A6070BD4145000051
:10014000956500000000002040420F0004000020E0
:1001500010E000E030B5084B1C68084A00258021FB
:100160004902013807D3002CFBD054609560136816
:100170000B42FCD0F5E730BD0000002010E000E0AD
:1001800010B5034B1B68002B00D0984710BDC0462C
:100190009400002070B5441E002804D0024D0120B8
:1001A000A847013CFBD270BD55010000F8B5084CD2
:1001B00080277F0567618026360566616420054DCE
:1001C000A847A7610A20A847A6610A20A847F8BD4A
:1001D000004400419501000070B582B00023134A2D
:1001E000136001AC01256570A370257021001B20F0
:1001F0000F4EB04721001C20B04721002820B047F7
:100200000C4B1B681D4203D00A4B1B689B0701D493
:10021000094B9847094B98470122094B1A70BFF3C5
:100220005F8F62B6002002B070BDC046940000200F
:100230000931000010E000E015010000AD010000F0
:100240001000002010B584B00E4B186001AC2000E7
:100250000D4B9847292301930023636001332372D8
:100260000133E37221000920084B9847002209213D
:100270000748084B984700210920074B984704B0CE
:1002800010BDC046940000207D3000009130000079
:1002900081010000392F0000652F000010B50028F3
:1002A00004D100210920044B984710BD00210920EA
:1002B000024B9847F9E7C046852F0000652F0000E4
:1002C00030B591B0304C0E23237000236370A370BF
:1002D00001A901224A708B700A700E202B4B98479F
:1002E0002278D1090023002904D15309DB012849D0
:1002F0008C4663441F211140012210008840986100
:1003000002AC2270002303930493C021890305915A
:1003100023746374A274E27423752332A354183ACD
:10032000002108A81B4B98471B4BA3621B4BE362A1
:1003300001235B4223631A4B63631A4BA3612200C0
:1003400019491A481A4B984700281AD1174D2C689A
:100350002000184B98471F2318401E3B8340164A25
:1003600013602A68D369002BFCD12368022213434F
:100370002360124B98470120114B9847002011B081
:1003800030BD06204042FAE7580200200931000043
:10039000004400416769000002000C0002000D00EB
:1003A00002000F00001BB700001000425C0200209A
:1003B000F13500006135000000E100E0AD01000012
:1003C00095010000F0B5DE4657464E464546E0B57D
:1003D00085B003286CD10E684D680C89002202ABF1
:1003E000DA71002E28D0002D5FD101239B46002317
:1003F000019302ABDD1D012235493648364B984743
:10040000002C3FD0334B9A46012704229946594687
:100410004B4259418C46307853461B68197E39420D
:10042000FCD0197E3942FCD09862197E1142FCD072
:100430004946897988460DE000239B4601330193A4
:1004400002ABDE1DD7E7404601280DD0986AC0B246
:1004500000290DD0197E1142FCD0588B002110428A
:10046000F1D05A831E31EEE7986AC005C00DEFE760
:100470002870013CA4B26544019B59424B41F618D7
:10048000002CC8D1134B196802220B7E1342FCD0FA
:1004900000220F490F48104B9847002005B03CBC84
:1004A00090469946A246AB46F0BD06204042F5E78D
:1004B0008622520009490A480A4B98470A480B4BC2
:1004C00098470D200A4B984701204042E6E7C04676
:1004D000580200205C020020C9370000707E000036
:1004E000807E0000C96A0000947E0000E56B000079
:1004F000FD6A000070B50C4D2C6820000B4B98472E
:100500001F2318401E3B8340802209498B502A68D4
:10051000D369002BFCD18F33237523762368022205
:1005200093432360002070BD5C0200206135000011
:1005300000E100E0002A06D082180B780370013039
:1005400001319042F9D17047002A04D0821801701D
:1005500001309042FBD1704703000278002A07D097
:100560000020013080B201331A78002AF9D1704797
:100570000020FCE7024A13780133DBB213707047A6
:100580009B0000207047000000B583B00120094B9C
:10059000984701A90848094B9847002801D003B0A3
:1005A00000BD0221019B194301910348044B984768
:1005B000F5E7C0469D020000701000002119000000
:1005C0002D19000010B50F4B1B78002B07D10E4BD7
:1005D0001B78032B0AD00C4B1B78042B06D0094A3E
:1005E00013780133DBB21370002010BD074B98471E
:1005F0000028FAD106490748074B98470028EED053
:10060000F3E7C04699000020980000205114000034
:1006100078560000741000002D19000000B583B05A
:10062000174B1B78002B04D0154A1378013BDBB223
:100630001370134B1B780020002B07D1114B1B7834
:10064000032B05D00F4B1B78042B01D003B000BD4A
:10065000002301930C490D480D4B98470028F5D114
:1006600001A901300B4B98470028EFD101998B0766
:10067000ECD50223994301910130054B9847E5E7FA
:100680009900002098000020214300007410000011
:100690002D19000021190000F0B5DE46574680B53F
:1006A00089B083468A460192009310AB80CB1E88A6
:1006B00012AB1D887F220A4007AB5A7018700822BF
:1006C0005A80002F00D192E05A889219AA1892B24B
:1006D0005A805A4B9847041E00D099E00023059396
:1006E00002AAD3800493049B5A461A430492049AA4
:1006F00053461B021343049307AB5B88049A1B0405
:100700001343049304994E484E4B9847041E00D05F
:100710008AE000230493049B022213430493049968
:100720004948484B9847041E00D07DE000220592BE
:1007300002ABDA8006331B889BB2444A934213D83B
:10074000434C04A94048A04700280DD1049B9B07B7
:1007500055D502ABDA88013292B2DA8006331B88B3
:100760009BB23A4A9342ECD9059B002B62D0059B81
:10077000069307A94B889BB24B8006980822354BFD
:100780009847041E50D1069B08330693019B002B0B
:100790000BD00698009A19002E4B9847041E43D19F
:1007A000069B009A944663440693002F0ED0069B46
:1007B000009AAD1AED180695069832003900254BBF
:1007C0009847041E30D1069BF3180693059B9B00A7
:1007D0000493049B02221343049304991E48194B6B
:1007E0009847041E20D11D4B984704001CE007AB1E
:1007F0005A8800998C46624492B25A8069E705A9EA
:100800001748134B98470028AED000230593ABE759
:10081000A022FF3213491448144B98471448154B33
:1008200098470D20144B9847200009B00CBC924605
:100830009B46F0BD03246442F6E7C046C5050000B0
:100840008C1000002D19000078100000E703000054
:1008500021190000A11900006C1000001D06000005
:1008600000041500C87E0000807E0000C96A0000F8
:1008700018810000E56B0000FD6A0000F0B5CE466F
:10088000474680B587B0A44B98469946D7E004AD5B
:10089000042229000598A14B984704006B889BB25D
:1008A0006B8000282CD104AB5B889BB29E4204D0A5
:1008B00004AB5B88F31A042B32DC04AB1B78012BEE
:1008C00047D004AB1B78022B62D004AB1B78042BFF
:1008D0006CD004AB1B78062B76D004AB1B78072BAF
:1008E00000D17FE08E4A8F498F48904B98479048BF
:1008F000904B98470D20904B9847062464429CE00B
:10090000EB22520087498848884B98478B48894B8F
:1009100098470D20884B98470120894B98478CE0D9
:10092000E022FF327F498048804CA04704A94A88D2
:1009300092B20B78DBB24978009131008148A04730
:100940000D207D4B984701207D4B9847062464423B
:1009500073E07D4B1B68002B08D004AA5078C0B20E
:100960005188059A0832083989B29847774B1B7825
:10097000002B5FD1764A6B496B486C4B98477548A2
:100980006C4B98470D206C4B9847734B984751E040
:10099000724B1B68002BE9D004AA5078C0B2518872
:1009A000059A0832083989B29847DFE76C4B1B6813
:1009B000002BDBD004AA5078C0B25188059A0832C7
:1009C000083989B29847D1E7664B1B68002BCDD018
:1009D00004AA5078C0B25188059A0832083989B201
:1009E0009847C3E7604B1B68002BBFD004AA507820
:1009F000C0B25188059A0832083989B29847B5E7DC
:100A00005A4A48494848494B98475948494B98479A
:100A10000D20494B98470224644234E0862292001C
:100A200040494148414CA04703995248A0470D20F6
:100A3000414B9847504B98470400002C23D1434624
:100A40001B78002B62D04B461B78013BDBB24A4639
:100A500013704A4F22E04A4A32493348334B984791
:100A60004848344B98470D20334B98470BE0892278
:100A700092002C492C482D4B984743482D4B9847C2
:100A80000D202D4B9847414A41492748274DA847FB
:100A900021004048A8470D20274B9847B847041E1F
:100AA000E5D103A93C483D4B9847041ED3D1039B95
:100AB000DB07B3D50020224B9847012303999943C4
:100AC00003913548364B9847041EDCD100221F4B5A
:100AD0001A70039B9E04360D92D00023059305A93E
:100AE00030482E4B9847041E00D1D0E6E722520032
:100AF0000C490D480D4B98472B480E4B98470D203D
:100B00000D4B984701200E4B984796E7002007B001
:100B10000CBC90469946F0BD9B000020391900009E
:100B200002020000D47E0000807E0000C96A00003E
:100B3000847F0000E56B0000FD6A00002C7F000050
:100B40009D020000447F0000B00000209A000020B9
:100B5000090200009C7F000089050000A40000201D
:100B6000A80000209C000020AC0000201102000022
:100B7000C07F0000D47F00001D060000C5050000F6
:100B80001E020000F07F00001480000043020000FD
:100B9000DC7E00003480000070100000211900008D
:100BA0002D19000084100000087F0000F0B5CE462B
:100BB000474680B583B006000C0015001F000028D2
:100BC00003D0002901D0002A19D1002F09D0012219
:100BD000314B1A70314B984703B00CBC9046994684
:100BE000F0BD2F4A2F493048304B98473048314BA1
:100BF00098470D20304B98470C204042ECE769465F
:100C00002E482F4B98470028E6D1009B984601A913
:100C10002C482B4B98470028DED143469B041B0DE4
:100C200098469D421AD8019B9E4226D3721991463E
:100C300043449A4221D82A0021003000224B984791
:100C40000028C9D1019B4344994501D0002FC3D04E
:100C50000122114B1A70114B9847BDE71B4A1149ED
:100C60001148124CA047424629001948A0470D20C0
:100C7000114B98470C204042AEE7A0229200094950
:100C800009480A4B984713480A4B98470D200A4BCE
:100C900098470C2040429FE79A00002089050000F9
:100CA00069020000EC7E0000807E0000C96A00003E
:100CB00064800000E56B0000FD6A00007010000019
:100CC0002119000084100000391900007A02000088
:100CD00084800000C880000070B5040007281BD87D
:100CE0008300144AD3589F46134B1960002070BDEF
:100CF000124B19600020FAE7114B19600020F6E74B
:100D0000104B19600020F2E70F4B19600020EEE74E
:100D10000E4B19600020EAE70D4A0E490E480F4DB0
:100D2000A84721000E48A8470D200E4B98470C20DD
:100D30004042DCE7A87E0000A4000020B0000020B4
:100D4000A8000020A00000209C000020AC00002093
:100D5000B9020000F87E0000807E0000C96A000031
:100D60000C810000FD6A000010B50023094A1360E1
:100D7000094A1360094A1370094A1370094A13702B
:100D800009480A4B98470A4903200A4B9847002014
:100D900010BDC046B0000020A40000209900002033
:100DA000980000209B00002075050000450200000F
:100DB00085050000D90C000030B59FB00400150077
:100DC0002C282FD01B283DD006284BD00E2827D00A
:100DD000322857D02F2865D0342800D177E0112849
:100DE00000D196E0132800D1ACE0042800D1BBE08C
:100DF000652800D1CAE0092800D1D9E02A2800D10D
:100E0000E8E0202800D1F7E09522520089498A487D
:100E10008A4DA84721008A48A8470D20894B98474A
:100E20001FB030BD0023042203A92800864CA04730
:100E30000028F5D1854B1B68002BF1D003A92C307D
:100E40009847EDE70023082203A928007E4CA0471D
:100E50000028E5D17D4B1B68002BE1D003A91B3096
:100E60009847DDE70123302203A92800764CA047EC
:100E70000028D5D1754B1B68002BD1D003A90630B3
:100E80009847CDE70023102203A928006E4CA04705
:100E90000028C5D16D4B1B68002BC1D003A932308F
:100EA0009847BDE76422002103A8694B98470023B7
:100EB000642203A92800644CA0470028B0D1634BEA
:100EC0001B68002BACD003A92F309847A8E700235C
:100ED000042203A928005C4CA0470028A0D15D484B
:100EE000564DA847039C230AFF200340220C0240D2
:100EF000210E204000905848A8470D20514B98479C
:100F0000524B1B68002B00D18AE700213420984700
:100F100086E70022514B1A700023043203A92800EF
:100F2000494CA047002800D07AE703AB1A784C4B15
:100F30001A70464B1B68002B00D171E703A91130D2
:100F400098476DE700232C2203A928003E4CA047B8
:100F5000002800D064E73D4B1B68002B00D15FE701
:100F600003A9133098475BE7002304221CA928003B
:100F7000354CA047002800D052E7344B1B68002BAB
:100F800000D14DE71CA90430984749E7002304220B
:100F90001CA928002C4CA047002800D040E72B4B70
:100FA0001B68002B00D13BE71CA96530984737E749
:100FB0000123642203A92800234CA047002800D065
:100FC0002EE7224B1B68002B00D129E703A909302B
:100FD000984725E70123042203A928001A4CA047BB
:100FE000002800D01CE7194B1B68002B00D117E725
:100FF00003A92A30984713E70023082203A92800F1
:10100000114CA047002800D00AE703AB9A882800BB
:101010000830012303990C4CA047002800D0FFE6BC
:101020000A4B1B68002B00D1FAE603A92030984731
:10103000F6E6C04634810000807E0000C96A0000E8
:1010400090810000FD6A0000AD0B0000B40000209C
:10105000490500006481000070810000B900002093
:10106000B8000020F0B58BB001226B46DA71002881
:101070004DD00268274B1A600022274B1A706B462E
:10108000D81D264B9847041E02D020000BB0F0BD9F
:101090000020234B9847041E35D122490120224BC2
:1010A000984702AD2800214B984704002048214E64
:1010B000B047AB796A7929791F48B0470D201F4F97
:1010C000B8471B48B0476B7A2A7AE9791C48B04781
:1010D0000D20B8471648B0470023032213211948B2
:1010E000B0470D20B84723000D33CED1D622FF32B2
:1010F000154916480F4B98471548164B98470D2031
:101100000E4B9847C1E70020134B9847BDE70C24CE
:101110006442BAE7B4000020B9000020BD1A000004
:10112000690D0000B90D0000D90C0000091A00007B
:1011300064810000C96A00004C820000FD6A000062
:10114000688200008482000040810000807E0000F0
:10115000A0820000E56B0000911B000010B5014B60
:10116000984710BD7D080000F0B5CE46474680B5D3
:10117000A3B005900C0015001F002AAB1B889946F0
:101180002BAB1B789846012A03D0002F3DD0022AB2
:1011900049D0631E1F2B00D975E04B460D2B02D999
:1011A000FF2B00D07DE007AE220005995A2002AB4C
:1011B0009C466044784B984734194634002323708A
:1011C00044334A46F25243465A1E93416722B3546F
:1011D0004123F554032D00D171E0022D00D1ABE085
:1011E000042D00D1C3E0012D00D0C6E000230293FE
:1011F000019300936C3307AA28210120674CA04774
:1012000023B00CBC90469946F0BD654A65496648D6
:10121000664B98476648674B98470D20664B984742
:101220000C204042ECE73800644B98474028B0D18E
:101230003B781A00303A362A17D80A3A062A14D9C7
:10124000473B192B11D97A1C38004030137819000C
:101250003039362909D80A39062906D9473B192BCE
:1012600003D901328242F1D193E7554A4D494E48A4
:101270004E4B984753484F4B98470D204E4B98473D
:101280000C204042BCE7504A46494748474B9847E4
:101290004E48484B98470D20474B98470C204042FA
:1012A000AEE74B4A3F494048404B98474948414B7D
:1012B00098470D20404B98470C204042A0E73B78D0
:1012C000013BDBB207AA1370032B18D87A78511EA2
:1012D00007AB59701023110099430B291ED090229F
:1012E000920030493048314CA04707AB59783A4812
:1012F000A0470D20304B98470C20404280E7374AEA
:1013000028492948294CA04707AB19783448A047F9
:101310000D20294B98470C20404271E7B91C16203C
:1013200002AB9C4660441C4B98477B7807AA9446C6
:10133000634400229A7059E73800204B9847431EB7
:101340009BB23F2B05D8421C390007A8124B984787
:101350004CE7244A13491448144B98472248154B2C
:1013600098470D20144B98470C20404248E73E22F6
:10137000390007A8084B984738E71C4A09490A482A
:101380000A4B98471A480B4B98470D200A4B984731
:101390000C20404234E7C0463505000099060000A5
:1013A0000302000050810000807E0000C96A000036
:1013B000A4810000E56B0000FD6A000059050000F3
:1013C0000F020000B881000019020000C481000073
:1013D00022020000D88100000082000039020000D3
:1013E000E48100004F0200001C8200005F02000048
:1013F0003882000030B583B006AC24880025019502
:101400000094024CA04703B030BDC04669110000F3
:1014100000207047F0B583B00400A5256D010A4E89
:101420000A4F21002800B047002C09D00023019367
:1014300001A92800B8470028F3D1019B9C42F0D1B4
:10144000002003B0F0BDC0462D1900002119000096
:10145000F0B5D6464F4680B585B00120414B984740
:1014600003A90120404B984701900024002806D191
:101470003E4B9A463B4B99463D4F1E0026E072225A
:101480003C493D483D4B98473D483E4B98470D20D1
:101490003D4B98470BE0962236493748374B9847E3
:1014A0003A48384B98470D20374B9847019501989B
:1014B00005B00CBC91469A46F0BD0221039B19432E
:1014C00001202A4B9847029B5B07F0D40221039B23
:1014D00019430120D0470120C8472D4B186802A9A5
:1014E000214B9847002802D1029B002B1AD1284D8E
:1014F0000E232B6001201B4B9847286802A91A4B2A
:101500009847002802D1029B002B0BD1204D1323BA
:101510002B600120134B9847286802A9124B98476B
:10152000051EB8D11A4D029B5B07C0D401340321BC
:101530002000B8470029C0D10220B04702A928687E
:10154000094B9847029B5B07EDD4AA2209490A4838
:101550000A4B98470F480B4B98470D200A4B98476A
:10156000E1E7C04695010000211900002D19000097
:10157000A1660000BC820000807E0000C96A0000F5
:1015800020830000E56B0000FD6A0000408300003E
:101590000C0000206083000000B583B001A917484B
:1015A000174B984700281DD180214900019B194302
:1015B00001911248134B9847002816D101A9D02059
:1015C00040010F4B9847002812D180214902019B0E
:1015D00019430191D02040010A4B984700280AD1B5
:1015E00003B000BD06204042FAE706204042F7E77C
:1015F00006204042F4E706204042F1E708140000CC
:10160000211900002D19000010B582B0284B1C686C
:10161000002C04D0264B1C68200002B010BD19001D
:1016200080204001234B9847002803D00022204B04
:101630001A60F1E701A920481E4B9847002803D003
:1016400000221B4B1A60E7E7194B1B681B4A9342A9
:101650000ED01B4A934212D01A4A93421CD014490E
:10166000194A0B681A40A023DB0213430B60D1E731
:10167000019B012BF3D0154A0D4B1A60EFE7019B3C
:10168000032BECD0042B03D0114A094B1A60E6E778
:10169000104A074B1A60E2E70549EC208003054B2E
:1016A00098470028DBD00022014B1A60B4E7C046FF
:1016B000BC00002021190000F4130000A00210005B
:1016C000B0021000F0001000FFFFF0FFA1021000B8
:1016D000B2021000B1021000F8B50700244D254CED
:1016E000254E2800A047002802DB0120B047F8E77C
:1016F0002248204B9847C30709D41F4E204C1D4D4C
:101700000120B0472000A8471E4B9842F8D1022F75
:1017100016D0032F1ED0043F7B425F41FF011A4BBE
:1017200098470005000DE8239B0098421BD0380025
:10173000164B984716491248164B98470020F8BD9B
:1017400015491648134CA047802149031448A04767
:101750000027E4E7104911480E4CA047002110482B
:10176000A0470027DBE702203843084B9847E1E712
:10177000141000001519000095010000BC070200BC
:101780000C000C009ED0AD100916000015140000CE
:10179000612F52EF2D1900007DD51C3CAC070200D3
:1017A0008C10000070B582B0154B0193154B00935F
:1017B0000238012811D9012464420020124E134D31
:1017C000009B98420ED00220B0470198A847013CE8
:1017D000002CF5D10520404209E00D4B01930D4B43
:1017E0000093E8E7009A074B00209A4201D002B02C
:1017F00070BD00210248084B98470020F7E7C0461B
:101800008C100000362653029501000015190000C7
:10181000AC070200C3C15DD72D190000F0B583B03D
:101820000023019301A9A0204001274B98470028DD
:1018300024D12649019B19400191A0204001244B4D
:10184000984704000A25002824D11F4E204F01A9E3
:10185000A0204001B047041E28D101994B050AD5AC
:101860001A4B19400191A0204001B8470400013DE6
:10187000EDB2002DEBD1200003B0F0BD154A1649A2
:101880001648174B98471748174B98470D20174B8A
:101890009847CEE7164A10491048114B984715480B
:1018A000114B98470D20114B9847E4E78F22920087
:1018B00009490A480A4B98470F480B4B98470D2097
:1018C0000A4B9847D7E7C04621190000FFFBFFFFEE
:1018D0002D1900002F020000CC820000807E000045
:1018E000C96A0000D8820000E56B0000FD6A0000B4
:1018F00035020000F08200000883000010B5014BA3
:10190000984710BDC102000010B5014B984710BDAB
:10191000F504000010B5014B984710BDB52100003B
:1019200010B5014B984710BDC921000010B5014BFF
:10193000984710BDE1210000F0B5D6464F46464617
:10194000C0B582B0804689461500134B1F88083FFA
:10195000BBB201931E0004009A421AD90F4B9A465B
:10196000371A4346E11A4944019A2000D04700281B
:1019700009D1AD1B3919A419B542F2D8AAB249440C
:101980002000064B984702B01CBC90469946A246E0
:10199000F0BD0021F2E7C04608000020212300002E
:1019A000F0B5D6464F464646C0B582B08046894619
:1019B0001500134B1F88083FBBB201931E000400A3
:1019C0009A421AD90F4B9A46371A4346E11A4944AC
:1019D000019A2000D047002809D1AD1B3919A4195C
:1019E000B542F2D8AAB249442000064B984702B04B
:1019F0001CBC90469946A246F0BD0021F2E7C046C5
:101A000008000020F923000070B582B00400002314
:101A1000019301A92248234B98470600224B019AC3
:101A20009A4233D0019A110C8BB2180AE0711B094B
:101A30000F252B4023722940617293B2190A21713C
:101A40001B092B4063712A40A271184B98472060F4
:101A500022791202A3792B40134362791201FF21EC
:101A60000A401343E2791202607A05401543227A54
:101A7000120111400E4A0D43954201D90D267642BE
:101A80000C4A934208D9300002B070BD01A90A483F
:101A9000044B98470600C5E70D267642F3E7C0469B
:101AA000AC07020021190000C3C15DD70916000070
:101AB000301300002F1300004810000070B50028FC
:101AC00037D005786B1E032B00D901250020204B51
:101AD0009847041E2FD11F481F4CA0471F4B984703
:101AE00001001F48A0470D201E4B98471E4B9847EA
:101AF00028001E4B9847041E17D128001C4B9847FE
:101B0000041E12D1023D012D11D91A4B9847041E13
:101B10000DD0AE225200184918480F4B984718486C
:101B2000184B98470D200F4B9847174B98472000AC
:101B300070BD0125CAE7922252000F490F48064B9B
:101B4000984712480F4B98470D20064B9847EEE7F1
:101B5000FD18000064810000C96A00000916000039
:101B60003C840000FD6A0000F9210000D916000045
:101B7000A51700009915000084830000807E0000F6
:101B800000840000E56B00000919000020840000BB
:101B900010B51C4B9847041E0BD100201A4B9847D8
:101BA000041E14D1194B9847041E1DD1184B984799
:101BB0000BE0BA22520017491748184B98471848AB
:101BC000184B98470D20184B9847200010BD7C22D9
:101BD000FF3210491048114B98471448114B984751
:101BE0000D20114B9847F0E78222FF3209490A483D
:101BF0000A4B98470E480B4B98470D200A4B9847C5
:101C0000E3E7C0461D180000A92D000009190000D7
:101C1000A521000090830000807E0000C96A0000BA
:101C2000A0830000E56B0000FD6A0000C083000097
:101C3000E483000000B585B001AB00220192029060
:101C4000198119000320024B984705B000BDC0461A
:101C5000C5030000F0B5C64600B582B00700CF2826
:101C60002BD003003B33DBB2012B26D90B246B4670
:101C7000DE1D264B984601213000C047051E25D1A8
:101C80003378BB4230D0013CE4B2002CF3D10B34AA
:101C90006B46DE1D1D4F01213000B847002825D1BD
:101CA0003378002B2FD0013CE4B2002CF3D1012576
:101CB000280002B004BC9046F0BD01216B46D81D3F
:101CC000124B984700250028D0D0F1E72822FF3298
:101CD0000F491048104B98471048114B98470D205A
:101CE000104B98470025E3E70B24D1E73622FF325B
:101CF00007490848084B98470848094B98470D2062
:101D0000084B9847D4E70125D2E7C046351C0000B0
:101D100090840000807E0000C96A0000C88800002E
:101D2000E56B0000FD6A0000F0B5DE4657464E4602
:101D30004546E0B587B001908946029200239A4655
:101D400080239B019B466A46D3813D4B98462FE0FA
:101D50005822FF323B493C483C4B98473C483D4B5E
:101D600098470D203C4B98470025280007B03CBC05
:101D700090469946A246AB46F0BD002C2EDD019B55
:101D80005344180039002E4B9847041E34D1029B4F
:101D9000002B03D1314B1B78002B3AD05346FB1854
:101DA0001BB29A464B46DF1BBBB29946002B44D070
:101DB0004F46D94501D96B46DF89BFB20A2404AB2F
:101DC000DE1C01213000C047051EC1D133781B093C
:101DD0000F2BD2D0013C24B2631CF2D16422FF321B
:101DE00018491948194CA04704ABD9781C48A0479A
:101DF0000D20194B9847B8E7B622520011491248F6
:101E0000124B98471748134B98470D20124B984791
:101E1000ABE7022105A80A4B98470028BED07822DC
:101E2000FF3208490848094B98470F48094B984723
:101E30000D20094B9847250097E7012595E7C046F7
:101E4000351C00009C840000807E0000C96A0000F0
:101E5000FC880000E56B0000FD6A0000C000002067
:101E600030890000608900009089000000B585B0CD
:101E700001AB019000220292198119000320024B4C
:101E8000984705B000BDC046C503000070B584B0DA
:101E900008AC257801AC20703F30C4B20E2C00D9BC
:101EA00084E0A0004F4C2058874601AB0A0C5A70C2
:101EB0000A0A9A70D97005214B4B1B78002B77D0FA
:101EC0000139C9B283E00B0ADBB2002D07D101AAA8
:101ED000537001AB99700022DA700521ECE7802283
:101EE0005242134301AA5370F3E701AB00225A7028
:101EF0009A70DA700521DFE701AB00225A709A7000
:101F0000DA700521D8E701ABFF225A709A70DA70B7
:101F10000521D1E701AA080C5070080A9070D17011
:101F2000190A117153710721C6E701AA080C5070F4
:101F3000080A9070D170190C1171190A51719371BE
:101F40000821B9E70B0ADBB2002D0CD101A84370C0
:101F500001AB9970110ED970110C1971110A5971D8
:101F60009A710821A8E780204042034301A84370EA
:101F7000EEE701AB080C5870080A9870D970110E82
:101F80001971110C5971110A9971DA71092193E7CC
:101F90008422520015491648164B98471648174B8D
:101FA00098470D20164B9847002317E0002315E0B3
:101FB0004E1E01AA95197F23124C5B0010784340F6
:101FC000E35C0132AA42F8D15B0001AA935589B2C1
:101FD00001A80D4B984701230028D9D1180004B05F
:101FE00070BDC0464C840000C00000208884000002
:101FF000807E0000C96A00009C880000E56B00003C
:10200000FD6A0000048500006D1E000070B582B0FE
:1020100004000A00302818D90023C925009304239E
:1020200021002800174EB047012811D0EC22FF32C2
:1020300015491648164DA84721001648A8470D20F7
:10204000154B9847002002B070BD0123C325E5E77A
:102050002800124B98470128F5D0F222FF320A4996
:102060000A480B4DA84721000D48A8470D200A4BF0
:1020700098470023009300220021CF20014CA04765
:102080000020E0E78D1E0000BC840000807E000080
:10209000C96A0000448A0000FD6A0000551C000067
:1020A000708A0000F0B587B004000391FF2818D9AA
:1020B0000027CA25009704230022210028002B4E68
:1020C000B047012810D02A4A2A492B482B4DA8474F
:1020D00021002B48A8470D202A4B9847002007B025
:1020E000F0BD0127C425E5E72800274B98470128C4
:1020F00013D0264A1F492048204DA84721002448D4
:10210000A8470D201F4B9847002300930022002171
:10211000CF20164CA0470020E1E73A00042105A893
:102120001C4B984701280DD105AA53781B029178C2
:1021300009040B4311780B43D27812061343039A18
:102140001360CCE7144A0B490B480C4B98471348D3
:10215000134B98470D200B4B984700230093002208
:102160000021CF20014CA0470020B8E78D1E0000C1
:1021700045020000DC840000807E0000C96A000087
:10218000C4890000FD6A0000551C00004B020000DD
:10219000F0890000291D000053020000248A00007D
:1021A000E56B00000022024B1A7000207047C04609
:1021B000C000002000B583B001A9024B98470198E8
:1021C00003B000BDA520000010B5044B98470023C4
:1021D000012801D1180010BD063BFBE7A520000037
:1021E00010B5044B98470023012801D1180010BDF9
:1021F000063BFBE70D20000010B582B000230093E2
:10220000364A137069463648364B9847002828D01E
:10221000324B1B78002B0DD17C33009999432C3B1A
:10222000194300912E48304B9847041E3AD00122A2
:102230002A4B1A7001A9802040012A4B9847002898
:102240003CD0274C2000294B98477023010099432C
:10225000502001432000264B98470024200002B064
:1022600010BD01221D4B1A70224A23492348244BDA
:1022700098472448244B98470D20244B984769469B
:102280001748184B9847041EC2D1B22292001A492F
:102290001A481B4B98471E481B4B98470D201B4B59
:1022A0009847DBE71B4A14491448154B98471A48CE
:1022B000154B98470D20154B9847CFE7B722920052
:1022C0000D490E480E4B984714480F4B98470D2068
:1022D0000E4B984706246442C0E7C046C000002069
:1022E00024E80000A52000000D200000B52100001A
:1022F000E1210000C5020000F8840000807E00009B
:10230000C96A000004860000E56B0000FD6A000059
:1023100054860000D202000080860000B4860000CF
:10232000F0B583B004000E001500002300931300E5
:1023300000220100C820244FB84701280FD09D2259
:10234000920022492248234DA84721002248A8474D
:102350000D20224B98470620404203B0F0BDC82014
:102360001F4B9847012812D01E4A18491848194D8A
:10237000A84721001C48A8470D20184B9847002368
:10238000009300220021CF200F4CA047E3E700225A
:1023900029003000154B984703000020012BDCD0AA
:1023A000A122920009490A480A4B98471048114B4C
:1023B00098470D20094B98470023009300220021E5
:1023C000CF20014CA047C6E78D1E0000EC84000022
:1023D000807E0000C96A0000D8860000FD6A000007
:1023E000551C00007A02000008870000291D00002B
:1023F00040870000E56B0000F0B5D64600B586B01A
:1024000004008A46150000230093130000220100F7
:10241000C720534EB047012810D0524A5249534862
:10242000534DA84721005348A8470D20524B9847C9
:102430000620404206B004BC9246F0BDC7204F4B78
:102440009847012812D04E4A47494848484DA84766
:1024500021004C48A8470D20474B98470023009384
:1024600000220021CF203E4CA047E1E7002205AB2F
:102470001A8000268027BF016B46DF8121E0002300
:10248000AF425B4102330B2002AA94466044102203
:1024900052421343037001213B4B984700281DD142
:1024A000534698192100384B9847002836D1374BAE
:1024B0001B78002B3FD0A61936B22D1BADB2002DD4
:1024C0004CD02C1CBD4201D96B46DC89A4B2002E35
:1024D000D5D10323BD42D6D9023BD4E7D422520042
:1024E0002B492248224B98472A482B4B98470D20CE
:1024F000214B9847294A1C491C481D4B984728489E
:10250000254B98470D201C4B984700230093002231
:102510000021CF20124CA04700208BE7B222FF32CF
:102520001B491248124B98471E481B4B98470D20D9
:10253000114B9847DEE7022105A8134B9847002866
:10254000B9D0BC22FF3212490848094B98471648B7
:10255000114B98470D20084B9847CBE7002069E7BF
:102560008D1E00000F020000CC840000807E000061
:10257000C96A000068870000FD6A0000551C000061
:1025800015020000988700006D1E0000C0000020AA
:10259000AC840000D0870000E56B0000260200003C
:1025A00074880000088800003C880000F0B5DE4612
:1025B00057464E464546E0B585B002900E00039260
:1025C0001F000EAB1C88002C10D003012D495B5856
:1025D000002B0BD001012B4B5B189B889BB2002B6F
:1025E00004D0284B5B189B7A012B06D005B03CBC6D
:1025F00090469946A246AB46F0BDF4808946214BF1
:102600004B449B46D84601970BE02500012312E07E
:10261000641BA4B2019B9C46AC4463460193002C0E
:10262000E4D05B469B88E31A1BB2002BEDDD4346EA
:102630009D88ADB20023134A494689582A00019863
:10264000114FB847002812D10E4B4A46D358336079
:10265000B580F3885B1BF3800C4B1B68002BD7D035
:102660000A4B1B683200039902989847D0E7084844
:10267000084DA84721000848A8470D20074B984758
:10268000B4E7C0469C020020AD0B00004C030020C4
:1026900064810000C96A0000A88A0000FD6A000089
:1026A000F0B5D6464F464646C0B59AB00D00140068
:1026B00041283AD0422853D043286AD0442800D138
:1026C000A5E04B2800D1A2E04A2800D1C8E0462866
:1026D00000D1DCE0482800D103E14D2800D1D3E04F
:1026E000452800D120E1472800D141E107254C28A9
:1026F00000D11AE1522800D0ACE00123142209A92C
:1027000020009C4CA047002800D0A3E09A4B0A9AD6
:102710001A601B68002B00D19CE0974B1C6809AB2A
:102720001A7C0B990998A04794E00023042209A978
:102730002000904CA047002800D08BE009AB5A78CD
:1027400005AB1A708D4B1B68002B00D182E08B4BC0
:102750001B6809AA0020105605AA0121984779E0B4
:102760000023042209A92000824CA047002871D12F
:1027700009AB5A7805AB1A70804B1B68002B69D0E7
:102780007E4B1B6809AA0020105605AA0221984713
:1027900060E000230C2205A92000764CA047002809
:1027A00058D105AB09229A56002A1ADB1101744B45
:1027B0005B180021D9720131997272490B8801337B
:1027C0009BB20B800B889BB2002B03D10B8801338B
:1027D0009BB20B806B4B198889B21001684B1B1898
:1027E000D98009AB1A7002229A8005AA5188D98033
:1027F000069A0B92614B1B68002B2BD05F4B1B681A
:1028000005AA0820105609AA0421984722E00023AF
:10281000042209A92000574CA04700281AD109AB6F
:102820000020185605AA10705B785BB25370002B1D
:1028300007D109AB5B88083B9BB20101504A521893
:1028400013814E4B1B68002B04D04C4B1B6805AA10
:10285000052198471AB01CBC90469946A246F0BD87
:102860000023442209A92000424CA0470028F1D1AE
:10287000454B1B68002BEDD0434B1B68199A039204
:10288000110009A89847E5E706239A4601E00623C8
:102890009A460023102205A92000364FB847002889
:1028A000D8D105AA0C201056D38907013449C9197B
:1028B00000270F730826975FB8465789B94609AFB6
:1028C00056887E81069A0C92CA8892B293420BD0A7
:1028D000102DBFD90123002200210020254CA04744
:1028E000B8E709239A46D4E74346002B01DDA84503
:1028F0000EDB09AB42469A80002309931F4B1B68ED
:10290000002BA7D01D4B1B6809AA51469847A1E789
:1029100023004B44424669468A818A890092524686
:1029200039001A4CA04795E707250023082209A97A
:102930002000104CA047002800D08BE709AB0020F6
:1029400018569A88598805AB198001010C4B5B1801
:10295000DB889BB29A4200D07CE7084B1B68002BB7
:1029600000D177E7054B1B6805AA2900984771E756
:102970000825DAE7AD0B0000500300204C030020CF
:102980009C020020C200002054030020AD2500005E
:1029900010B50A4B1B78002B00D010BDB0220021CF
:1029A0000748084B984708490220084B98470122DE
:1029B000024B1A700022064B1A80EEE7C10000207D
:1029C0009C02002049050000A1260000D90C00004F
:1029D000C2000020024B1860024B19607047C046CD
:1029E0004C03002054030020F0B587B015000228E6
:1029F00055D1012956D00B270726022915D13400BD
:102A000032012C4B9B189B7A002B4ED00136F0B232
:102A10002849C6B2BE423DD204000301CB189B7ABE
:102A2000421C002B03D01000F3E7083E34E0000105
:102A3000204BC018102200211F4B984722011D4B2C
:102A40009B1801229A721D4A138801339BB213808E
:102A500013889BB2002B03D1138801339BB21380E0
:102A6000164B1A8892B22101124B5B18DA8076B2AB
:102A7000EB0711D505AA16700E4B5C182123E372E3
:102A800000230293019300930433502102200C4C45
:102A9000A04701E001267642300007B0F0BD0126D4
:102AA0007642F9E707270026A9E73301014A98187B
:102AB000C0E7C0469C02002049050000C20000207B
:102AC0009906000070B588B0041E30DB002931D0B3
:102AD00000011D4B1B189B7A012B2ED1002A2FD0F1
:102AE000194B1B18DB7A4426DB0705D5164B1B1840
:102AF000DA7A05AB5A72073605AD2C720822280027
:102B0000124B98472401104B1C19E3886B8100235A
:102B10000293019300930C332A00310002200C4CE5
:102B2000A047002801D00920404208B070BD06200F
:102B30004042FAE706204042F7E706204042F4E729
:102B400006204042F1E7C0469C0200203505000007
:102B50009906000030B589B0002836DB002937D04F
:102B6000AF23DB009A4236D804011E4B1B199B7A17
:102B7000012B33D104AB18705A802500194C64190D
:102B8000E4889C815025062800DD0C3D0401154B8E
:102B90001B19DC7A4523E40705D50001114B1818F1
:102BA0000589ADB24C238020184302950192009113
:102BB000102304AA010002200B4CA0470023002888
:102BC00000D00E3B180009B030BD06235B42F9E788
:102BD00006235B42F6E706235B42F3E706235B42EC
:102BE000F0E7C0469C0200209906000030B587B08F
:102BF000002834DB002935D0002A36D005011E4CD0
:102C00006419A47A012C33D11B4C29516419A28078
:102C1000217B002200291DD101212173E27A453157
:102C2000D20700D50731002B17D1013B049304AA2A
:102C300010710001104B1818C388D3800023029331
:102C400001930093083302200C4CA0470022002877
:102C500000D00E3A100007B030BD0493E7E706221B
:102C60005242F7E706225242F4E706225242F1E7C7
:102C700006225242EEE7C0469C0200209906000060
:102C800030B587B0041E2ADB0201184B9B189B7AD3
:102C9000012B27D105A90870144B9B18DA884A80AC
:102CA00000229A72DA80DB7A4921DB0700D50531F0
:102CB0000023029301930093043305AA02200C4DD4
:102CC000A847051E01D009256D4224010748201898
:102CD00010220021074B9847280007B030BD062579
:102CE0006D42F9E706256D42F6E7C0469C020020DA
:102CF000990600004905000070B582B000230193D9
:102D0000002600210278441C05300B0009E09D00DC
:102D10005B195B009B18DBB222000134A0420AD091
:102D200012782E2A0AD0002A0CD0303AD2B2092AC0
:102D3000EDD9002000E0002002B070BD6A46B35417
:102D4000200002E06A46B35420000136042ED9D197
:102D50000422694601A8024B98470198ECE7C04657
:102D60003505000010B584B004000D4B9847C3B280
:102D7000402B12D8FF23034001330022029201921C
:102D800000922200CA210220064CA047002801D14F
:102D900004B010BD09204042FAE706204042F7E7A0
:102DA000590500009906000070B582B004002A4B56
:102DB00098470005000D294B0025984202D82800AD
:102DC00002B070BD01A92648264B9847051EF6D1D2
:102DD000254B019A13402549194301912048244B62
:102DE0009847002C20D000212248214CA047AB213D
:102DF0002148A04701212148A04700212048A047A1
:102E000081212048A047204E204C3000A0470128B7
:102E1000FBD1154B019A13408021490219430191BE
:102E20000F48134B9847CAE700211248104CA0479F
:102E3000B9211148A04701211048A047002110489E
:102E4000A04781210F48A0470F4E104C3000A047EB
:102E50000128FBD1DDE7C046091600009F030000F2
:102E60001014000021190000FF8F88F800101101D4
:102E70002D190000080201000C02010014020100DB
:102E80001C020100040201001802010015190000D3
:102E90000C4B1B68002B06D1EFF31083002B07D0DF
:102EA0000022094B1A70074A1368013313607047F8
:102EB00072B6BFF35F8F0022044B1A700132024BCF
:102EC0001A70F0E7C4000020C800002010000020A5
:102ED000084B1A68013A1A601B68002B09D1064B8F
:102EE0001B78002B05D00122044B1A70BFF35F8FB3
:102EF00062B67047C4000020C80000201000002007
:102F0000F0B583B001AC012565700027A77025706E
:102F100021001720064EB04780221204054B9A610B
:102F20002770657021003720B04703B0F0BDC04660
:102F300009310000004400411723002A01D0180085
:102F400070478B00064A9B58002B03D0834205D064
:102F50001D23F4E7890088500023F0E70023EEE703
:102F60005C0300201723002901D0180070470022BD
:102F70001F2800D8024A01238340D3600023F4E7CE
:102F8000001800401723002901D0180070470022C4
:102F90001F2800D8024A0123834093600023F4E7EE
:102FA0000018004070B50022104B1A700023104921
:102FB0001F25104E0D4C0AE00D4908E0237801331F
:102FC000DBB223700F2B10D800211F2BF4D928005F
:102FD00018400122824008691042EFD00A619B002C
:102FE0009B59002BEAD09847E8E770BD58030020B2
:102FF000001800405C030020044A137802210B43B0
:10300000137053785BB2002BFBDB70470018004055
:1030100000B583B0124A936940210B43936101A923
:1030200000230B7005200F4B984705200E4B984747
:103030000E4A137801210B43137053785BB2002BB7
:10304000FBDB0B4B19004031002204C39942FCD139
:103050001022084B1A60084B984703B000BDC046C9
:103060000004004059460000CD4500000018004013
:103070005C03002000E100E0F92F00000023036062
:10308000436001220272427283720233C37270473C
:10309000F0B583B005000C0001A900234B70CB7084
:1030A00023790B70237A8B702078154B984700207A
:1030B0001F2D00D8134807222A409200E77AA37AEE
:1030C000002B01D008231F43EB089B00C31899690C
:1030D0000F269640B14397403A000A439A61637ABB
:1030E000002B06D143690122AA409343436103B0F8
:1030F000F0BD42690123AB4013434361F7E7C0468B
:10310000514700000018004000B583B001AB802299
:103110001A700A785A704A789A708A78DA701900A8
:10312000014B984703B000BD5147000010B5490856
:1031300040230024814202D2180010BD1C00091A4D
:10314000631C9BB28842F9D94023FF2CF4D8148029
:103150000023F1E7F0B5DE4657464E464546E0B55A
:1031600089B00C00059212AA117805004D43402247
:10317000A54207D9100009B03CBC90469946A2462A
:10318000AB46F0BD002B55D1020008000021634D75
:10319000A8478346260000270023002400930194BB
:1031A000002200233F2020218C461F3902960397DE
:1031B00014E06446241A0D00E540A84615E0029C80
:1031C000039D121BAB414D46009E019F35433C00C1
:1031D000464634430095019401381DD320246442AF
:1031E0000419E6D40D00A540A8460C008440A14671
:1031F00092185B4114001D0046465F463E4203D0D4
:103200000E00264332002B00029C039D9D42E3D812
:10321000D5D19442E0D8D2E7002201230098019949
:10322000121A8B411900130C0A041A43059B1A80C9
:1032300000229FE70022012BF8D1630F0493E300E3
:1032400098460A0000230021344CA04704000D00DA
:1032500000239C46069320339B4601266346079332
:1032600048E05946C91B3000C840824610E000982B
:103270000199121A8B410299484601430291013F7C
:1032800025D3202149427918EBD43000884082466A
:103290003100B940894692185B411000190044463C
:1032A0004D462C40A4465446049D2C40A2466446FC
:1032B00055462C4303D03400044322000B000098F1
:1032C00001999942DBD8D2D19042D8D8CFE7009C5F
:1032D000019D0299079A8B1ADB0811498B4214D978
:1032E000069B0133DBB219000693130001330793E9
:1032F000082908D000230293002200233F210094D4
:1033000001950F00BDE7402234E7402206990829C5
:1033100000D12FE74A031A4388E7C04681680000BE
:10332000FF1F000010B582B004000E4B1B78002B6D
:1033300007D0002905D10B4B5B78834210D01D20AC
:103340000CE001A90C701320074B98471320074B82
:103350009847044B5C7001221A70002002B010BD27
:103360000020FBE7CC00002059460000CD450000BE
:10337000404B984231D00AD93F4B98424DD03F4BF9
:1033800098425AD03E4B984237D0002070473D4B70
:1033900098420CD03C4B9842F7D1012917D0002914
:1033A0005DD0022915D0032915D00020EEE70129B0
:1033B00007D0002951D0022905D0032905D00020CB
:1033C000E4E73248E2E73248E0E73248DEE73248F5
:1033D000DCE73248DAE73248D8E7012907D000298C
:1033E0003FD0022905D0032905D00020CEE72D4883
:1033F000CCE72D48CAE72D48C8E7012907D00029A6
:1034000031D0022905D0032905D00020BEE7284885
:10341000BCE72848BAE72848B8E7012907D00029BF
:1034200023D0022905D0032905D00020AEE7234888
:10343000ACE72348AAE72348A8E7012907D00029D9
:1034400015D0022905D0032905D000209EE71E488B
:103450009CE71E489AE71E4898E71E4896E7032017
:1034600094E71D4892E71D4890E71D488EE71D48E8
:103470008CE7C0460010004200180042001C0042C9
:103480000014004200080042000C00420300050046
:1034900003000600030007000300010003001E00F4
:1034A00003001F000300090003000A0003000B00D3
:1034B00003001100030012000300130003000D00BD
:1034C00003000E0003000F000300170003001800A4
:1034D00003001900030004000300080003001000AB
:1034E00003000C000300160030B587B00B4B6A4692
:1034F00032CB32C232CB32C2009B83420BD001238B
:103500009A0069465258824206D00133062BF7D101
:10351000002007B030BD0023D8B2FAE7BC8A000013
:1035200070470000F0B50A4B1B78002B0CD1094FF7
:10353000094E0A4D0024DE515A1914600433182B29
:10354000F9D10122024B1A708000024BC150F0BD2C
:10355000CE000020D0000020213500009C03002078
:1035600000B583B009236A461370013353700133E9
:1035700093700133D3700133137101335371034BD3
:1035800098476B46185603B000BDC046E9340000AA
:1035900010B5024B1B680020984710BDD0000020DA
:1035A00010B5024B5B680120984710BDD000002089
:1035B00010B5024B9B680220984710BDD000002038
:1035C00010B5024BDB680320984710BDD0000020E7
:1035D00010B5024B1B690420984710BDD000002095
:1035E00010B5024B5B690520984710BDD000002044
:1035F000F0B58BB005000C00160029600B681C208C
:103600009B0701D50BB0F0BD0B681738DB07F9D469
:103610000800604B9847604A116A871C0123BB4031
:103620000B43136209A92427F35D0B701430C3B256
:1036300001931800594B98470198594B9847F05DF2
:103640000021584B98473378012B38D02B000C338E
:1036500029002831002204C38B42FCD10023EB62F5
:10366000AB620024AB862B863633EC540133EC542A
:103670000133EC54353B6B722C712868454B9847ED
:1036800007004949494B9847BF00494BFD502F68F7
:1036900004AB80221A705C707F3A9A70DC703378C9
:1036A000002B02D1002204AB9A70B36A0593F36A2F
:1036B0000693336B0793736B089300240BE0236826
:1036C0000C2213432360C1E738003A4B98470AE0C5
:1036D0000134042C10D0E1B2A30002AA0C2012186D
:1036E000D0580028F0D0431CF2D004A90870000C78
:1036F000C0B2314B9847EBE733786B71337CAB71D9
:10370000B37CEB71337D2B72002202ABDA8033780D
:10371000012B28D07368B2681343F2681343317CDD
:10372000727C002A03D1254A9278920701D5802223
:103730001343B27C002A02D0802292021143F27C11
:10374000002A02D0802292001143327D002A02D04A
:103750008022920111433A6813433B607B680B431C
:103760007B6000204EE728680A4B98471430C0B2AF
:10377000134B9847010002AB9A1DB069114B984753
:1037800003001720002B00D03CE702AB06331B7868
:103790003B73BFE7E93400000004004059460000D5
:1037A000CD45000025330000BD3800002535000060
:1037B0009C030020713300005147000000200041AD
:1037C000754600002D31000010B544791523012CF9
:1037D00001D0180010BD047A0023002CF9D1002A72
:1037E00058D04B78002B44D003681B7EDB0710D4E5
:1037F0000A78D1090023002904D15309DB012E499D
:103800008C4663441F21114001228A409A6105239E
:10381000DFE70A78D4090023002C04D15309DB0127
:10382000254CA44663441F2414400122A2405A613F
:1038300003681A7ED20701D58A789A62C27900237A
:10384000002AC6D102680421137E0B42FCD0117EEF
:1038500000234907BDD5538B5B0701D50423538350
:103860008379012B02D0936A0023B2E7936A002385
:10387000AFE70A78D1090023002904D15309DB01FD
:103880000D498C4663441F21114001228A405A6130
:1038900000239EE70A78D1090023002904D15309A7
:1038A000DB0105498C4663441F21114001228A40F7
:1038B0009A6100238DE7C04600440041F8B58000BE
:1038C000704BC45826683723E75C3622A25C174049
:1038D000337EB57D1D40EB0702D56379012B1ED0E9
:1038E0006B0711D5738B5B075AD5637A012B08D010
:1038F0001E223823E254353B6372023333753B0793
:103900004AD4B36A04237383AB0703D56379012BCD
:1039100000D197E06DB2002D00DAA9E0F8BD637A1E
:10392000002B22D0637A002BDAD02168E26A137868
:10393000DBB2501CE062A079012827D09BB2DB05E6
:10394000DB0D8B62A38E013B9BB2A386A38E9BB241
:10395000002BC5D101333375637A012BC0D1E379D4
:10396000002BBDD10233B375BAE7474B1B88B36256
:10397000638E013B9BB26386638E9BB2002B01D1A9
:10398000013333756379012BCCD0A9E7507800025D
:1039900003430232E262D2E72000A3699847B0E70E
:1039A000637A012B28D023689B6ADB05DB0DDAB232
:1039B000A16A0A70A26A511CA162A179012934D0BE
:1039C000238E013B9BB22386238E9BB2002B00D01B
:1039D0009AE700223833E254343B3375637A022B82
:1039E00029D0637A002B00D08EE7BB0700D48BE789
:1039F00020002369984787E723689B6A638E013B11
:103A00009BB26386638E9BB2002B00D07CE70433AD
:103A1000337500223433E254353B6372FB0700D424
:103A200072E72000E36898476EE71B0A5370A36AA9
:103A30000133A362C4E77B0700D465E72000636914
:103A4000984761E7637A012B00D063E7E379002BA5
:103A500000D05FE7023333750133637200223533E0
:103A6000E254FB0700D455E72000E368984751E78C
:103A70008023337533767B0600D44FE7636A2000DA
:103A800098474BE79C030020B4030020F0B5DE46C6
:103A900057464E464546E0B591B005000C0016006D
:103AA00029600800BB4B9847020023680520DB070C
:103AB00006D511B03CBC90469946A246AB46F0BD37
:103AC000236817309B07F4D4B349086A971C012375
:103AD000BB4003430B620FA92D27F35D0B7014321B
:103AE000D3B202931800AD4B98470298AC4B98475D
:103AF000F05D0021AB4B9847F37A6B712423F35CA4
:103B0000AB712523F35CEB71F37E2B72337F6B7209
:103B10002B68984618009F4B9847143000220E23BC
:103B200006A98C4663441A80328A02928023DB0104
:103B30009A4200D19CE00FD9C023DB01029A9A423D
:103B400000D190E080231B029A4200D01DE10323A4
:103B500006930023079308E080239B019A4200D03C
:103B600013E1102306930F3B079333680593F36823
:103B70009B4673690393337E04932623F35C9A4632
:103B800073689946002B00D19EE080235B05994520
:103B900000D182E0737E002B02D0B37E4246937345
:103BA0002A68029FD369002BFCD10E3306AA9446E3
:103BB00063441B8842469381059B5A461343039AEC
:103BC00013434A4613431F43049B1B021F435346A0
:103BD0005B071F432723F35C002B01D104331F43F2
:103BE000737E9B02327F52021343727F1202134391
:103BF0002422B25C520413432522B25C1204134304
:103C0000F17A19433389FF2B00D181E080225204DD
:103C1000174319432C23F35C002B03D1624B9B7891
:103C20009B0701D580231F432A68D369002BFCD151
:103C3000434659602A68D369002BFCD143461F6074
:103C40000EAB80221A7000225A70DA709A70336BB1
:103C50000A93736B0B93B36B0C93F36B02930D93FB
:103C600000270AAE63E008230693073B07937CE72F
:103C700033680593F3689B4673690393337E04931B
:103C80002623F35C9A4673689946002B18D080234C
:103C90005B05994501D0002025E02723F35C002B2C
:103CA00000D077E7336A1F00C0B2404B984701004D
:103CB0000E2206AB9C46624438003D4B984712E00A
:103CC00008230693002307932723F35C002B0ED0D1
:103CD000069B0093079B0E2206A98C466244B16A9C
:103CE000306A344FB847002800D0E2E652E7336A22
:103CF0001F00C0B22D4B98470100069B0093079B05
:103D00000E2206A88446624438002A4FB847EAE7E4
:103D1000F37E002B00D17DE78023DB041F4379E78E
:103D20002000254B984707E00137042F0DD0F9B24A
:103D3000BB0098590028F3D0431CF5D00EA9087099
:103D4000000CC0B21D4B9847EEE70023EB602B61DF
:103D50006B61AB61EB612B62AB626B620022EB8546
:103D6000AB853033EA540133EA540133EA5401336A
:103D7000EA542868074B984704001149114B9847AB
:103D8000A400114BE550002093E610230693002376
:103D90000793EAE6E93400000004004059460000B9
:103DA000CD4500002533000000200041754600008D
:103DB0002D310000553100007133000051470000E3
:103DC000813E0000253500009C030020C2791C23A1
:103DD000002A01D118007047C28D92B2173B002A09
:103DE000F8D10368DA69002AFCD1198502211A7E0C
:103DF0000A42FCD00023EDE782791C23002A01D17E
:103E000018007047828D92B2173B002AF8D10268E1
:103E1000107E4007F4D5D369002BFCD1538BDBB265
:103E200098061DD0980703D5022353831833E7E77C
:103E3000580703D5042353831A33E1E7D80703D582
:103E4000012353831233DBE7D80603D510235383B2
:103E50003233D5E79B0603D5202353832133CFE7A5
:103E6000138D0B800023CBE7931C9B00C318596074
:103E70003021012393401A00435C1343435470479D
:103E8000F8B58000624BC5582C68E369002BFCD163
:103E9000237EA67D1E403023EB5C3122AF5C1F40A9
:103EA000F30722D5EB8D9BB2002B1CD0AA6A1378A6
:103EB000DBB2511CA962697901290ED09BB2DB05E6
:103EC000DB0D2385EB8D013B9BB2EB85002B0CD1E9
:103ED000013323750133A37507E0517809020B43C1
:103EE0000232AA62EBE701232375B30706D502234A
:103EF000237500223133EA54FB071AD4730765D5C2
:103F0000AB8D9BB2002B5FD0638BDBB21A0714D44E
:103F10003F221340002B34D09A0711D51A223223A6
:103F2000EA54303B63837B0750D528006B69984780
:103F30004CE02800EB689847E0E737221340E9E7B8
:103F40005A0705D51E223223EA542E3B6383EAE743
:103F5000DA0705D513223223EA54313B6383E2E7C3
:103F6000DA0605D542223223EA54223B6383DAE79C
:103F700020221A42D7D021323223EA54123B6383E3
:103F8000D1E7238DDB05DB0DDAB2696A0A706A6A54
:103F9000511C69626979012910D0AB8D013B9BB23C
:103FA000AB85002B12D10433237500222E33EA5443
:103FB000BB070BD528002B69984707E01B0A5370F5
:103FC0006B6A01336B62E8E704232375F30604D5BB
:103FD000102323752376FB060ED4B30604D52023C5
:103FE000237523763B070BD4330704D508232375A9
:103FF0002376BB0608D4F8BD2800EB699847ECE7A8
:104000002800AB699847EFE72B6A28009847F2E74A
:104010009C03002010B5082803D880001B4B1B58B8
:104020009F46002030E01A4B18692DE0194B1B6A9F
:104030009B059B0F1848D84026E0154B586923E094
:10404000134B1B6800209B071ED512491022CB681A
:104050001A42FCD00E4B1B685B0701D40F4813E0DB
:1040600000200F4B98470A4B9B681B041B0C5843BE
:104070000AE05023074AD35C00205B0704D5044BB9
:10408000D86801E08020000210BDC046D48A00003C
:10409000E80000200008004000127A00006CDC02FA
:1040A0007546000070B50C490B6A04788578407835
:1040B0000122104080014026B34303432A40D2012D
:1040C000802083431343032222401202034803400B
:1040D00013430B6270BDC04600080040FFFCFFFFA9
:1040E000F0B5DE4657464E464546E0B50100264B44
:1040F0009B469B8A457800784242424191468878A7
:10410000CA7894460A7990464E7B0F7B8C7B8A68EE
:104110001E494A6101214A46920091460422934376
:104120004A46134342460A40D2009046082293432F
:104130004246134362460A401201944610229343BA
:1041400062461343084040012022934303430F403B
:10415000BF01402083433B430E40F6014030834380
:104160003343793805402D02094803402B43214051
:104170000903084803400B435A4693823CBC9046CF
:104180009946A246AB46F0BD00080040E80000207A
:10419000FFF8FFFFFFEFFFFF10B5037A9B061B0C34
:1041A00042899205920D134318494B608379C27975
:1041B000134342888488224313434278D201134335
:1041C0000B600378042B11D0202B0ED1037B9B06B0
:1041D000028A1343C28912040D490A4013430B4A51
:1041E000936011680B4B0B43136010BD037B9B0660
:1041F000028A1343C289120405490A401343034A41
:104200009360136804210B431360EEE7E80000207D
:104210000000FF0324040000082803D88000254B79
:104220001B589F46172044E0234A136A02210B4380
:10423000136200203DE0204A936902210B43936101
:10424000002036E01C4A138A02210B43138200200F
:104250002FE0194A938A02210B439382002028E021
:1042600016490B68022213430B60134B9A84190002
:104270000E32CB681A42FCD0104A91680E4BD962BC
:1042800052689A6200229A8419001032CB681A424E
:10429000FCD00A4B1B689BB2074A9384002008E0BD
:1042A000054944228B5C022003438B54002000E02C
:1042B00000207047F88A000000080040E800002055
:1042C000F0B58FB0C222D200474B9A60474A53687C
:1042D0001E218B431A390B435360022201AB1A7023
:1042E0000024434DE0B201A9A8470134252CF9D19F
:1042F0000AA8002303708370802212028260C370B8
:104300000122027103738373023242704373394B8B
:1043100098470520384B984733490222CB681A4208
:10432000FCD0314A938A80210B43938205AB002154
:104330000022598099809A71DA713F3159813B3955
:1043400019705A702D4B1B689B0E3F2B4AD005A845
:1043500003722B4B0382072303733833C381294B2A
:10436000984704A800254570012686700570264BE5
:1043700098470620204FB847244B984701AC029637
:104380006570257265720523237021000120204B82
:10439000984701201F4B9847267021000020144B9E
:1043A000984700201C4B98470720B8470E49D02259
:1043B000CB681340D02BFBD1184A002313725372E1
:1043C0009372D37201A901224A604B700B724B7237
:1043D00007330B7000200E4B984700200D4B984779
:1043E0000FB0F0BD203BB2E70008004000400041A4
:1043F00059460000E140000019420000246080009E
:10440000B905000099410000A540000021440000CA
:1044100045440000FD440000CD450000000400407C
:10442000064A936908210B4393610122044B1A70D9
:1044300019000B781342FCD17047C04600040040BD
:10444000000C004070B5060004000D782D020543F5
:104450004B78002B02D08023DB021D434B7A002BCC
:1044600002D080231B031D434868012810D9431E36
:10447000184234D1022830D90223002201325B00D5
:104480009842FBD812023243140080235B031D4381
:104490000B7A002B02D080239B031D43134A5378D1
:1044A0005BB2002BFBDB124B9847124B1E700F4A7E
:1044B00053785BB2002BFBDB0C4B9C601A005378EB
:1044C0005BB2002BFBDB094A5368802149020B4099
:1044D0001D435560084B984770BD0022D2E7040287
:1044E000344380239B021D43D2E7C046000C0040AA
:1044F000912E0000080C0040D12E000010B50400E1
:104500000B4A53785BB2002BFBDB0A4B98470A4BF4
:104510001C70074A53785BB2002BFBDB044A5168DE
:1045200080235B020B435360044B984710BDC04689
:10453000000C0040912E0000040C0040D12E000021
:1045400070B504001A4A53785BB2002BFBDB194BA1
:104550009847194B1C70164A53785BB2002BFBDB53
:10456000134E7068C004C00E144B98470500124BE0
:104570001C707668F602F60F114B1C700C4A5378CB
:104580005BB2002BFBDB0A4B9C682402240C0D4B16
:104590009847002E07D1012C07D9210028000A4B8B
:1045A0009847050001E00134E540280070BDC04691
:1045B000000C0040912E0000040C0040154000004B
:1045C000080C0040D12E00009565000010B50400D5
:1045D000064B9847064B1C70064A53888021C90138
:1045E0000B435380044B984710BDC046912E0000EA
:1045F000020C0040000C0040D12E000010B5040059
:104600000F4B98470F4B1C700F4A53881B05180F10
:1046100053880E490B40538053880D490B405380FB
:1046200011008022D2014B881342FCD106494A88EE
:1046300003020648024013434B80064B984710BDC7
:10464000912E0000020C0040000C0040FFF0FFFF24
:10465000FFBFFFFFD12E000010B50C7824020443E9
:10466000024B9847A4B2024B5C8010BDFD45000090
:10467000000C004010B50400064B9847064B1C7018
:10468000064B5C882405240F054B98472000054BFA
:10469000984710BD912E0000020C0040000C004015
:1046A000D12E00004145000030B5D378002B35D124
:1046B0001378802B29D01B0680246402234354786E
:1046C0000225AC4306D19478002C20D18024A4028A
:1046D000234341605478013C012C1CD90D042D0C5E
:1046E000A024E4052C431C4384620D0CD024240632
:1046F0002C431C438462D478002C22D15B031CD54C
:104700009378012B1ED0416117E00023D7E7C02426
:10471000E4022343DDE70D4C2340DFE741600C0456
:10472000240CA023DB05234383620C0CD0231B063F
:1047300023438362D378002B03D15378013B012BB1
:1047400002D930BD8161F8E78160FAE7FFFFFBFF26
:1047500010B50A00C1090023002904D14309DB0177
:1047600005498C4663441F242040012181401800E4
:10477000024B984710BDC04600440041A9460000C6
:104780007047000010B5054B9847054B9847054BFF
:104790009847054B9847054B984710BDC14200000C
:1047A000012F000081470000113000008147000008
:1047B000094B98420CD0094B984207D0084A002375
:1047C000904201D018007047023302E0012300E05C
:1047D0000023DBB2F6E7C04600200042002400427E
:1047E0000028004210B5040008004F4B98470023F2
:1047F000236080004D4A82586260A372E372237383
:1048000063722372E36123626362A362237563753B
:10481000A375E3752376637623746374A374E374DA
:104820002C22A3540132A3540132A3540132A354C5
:104830000132A3540132A3540132A3540132A354D0
:104840000132A3540132A3540132A3540132A354C0
:104850000132A3540132A3540132A3540132A354B0
:104860000132A3540132A3540132A3540132A354A0
:104870000132A3540132A3540132A3540132A35490
:104880000132A3540132A3540132A3540132A35480
:104890000132A3540132A3540132A3540132A35470
:1048A0000132A3540132A3540132A3540132A35460
:1048B0000132A3540132A3540132A3540132A35450
:1048C0000132A3540132A3540132A3540132A35440
:1048D0004132A354A365A3670132A354E365E367A0
:1048E0000132A35423661A3AA3501B32A3546366C1
:1048F000173AA3501832A354A366143AA3501532A2
:10490000A354E366113AA3501232A35423670E3A1C
:10491000A3500F32A35463670B3AA35001210C320A
:10492000A1540132A35410BDB1470000308B0000E8
:10493000F0B5DE4657464E464546E0B591B001908B
:104940000C0015000800C34B984703000100C24843
:10495000026A9E00C14FF7593A43026222681C2046
:10496000920706D511B03CBC90469946A246AB468C
:10497000F0BD226801271740F4D1B94832581720FA
:104980002E68B242EED36E68B242EBD3E86982423F
:1049900000D2B9E1286A824200D2B7E1686A824255
:1049A00000D2B5E1A86A824200D2B3E198229446CF
:1049B000AC4462460892002003E00130013208282E
:1049C00008D01678002EF8D0A64E765C8642F4DC2D
:1049D0001720C7E70022029280204004844602E0AC
:1049E0000132042A0ED0A818007C0128F8D19E4874
:1049F000405C904200DA8FE160469040029E0643A0
:104A00000296EDE79D32AA5C002A04D080221201B2
:104A10000299114302912A7A511E8A41920006920C
:104A20006A7A012A22D0904AD25C1100059235227E
:104A3000AA5C8A4200D379E12C21695C0F2900D954
:104A400074E1287B0A90E87A0B902D208246AA44D4
:104A5000002004970EAE0796C0263601B146844664
:104A6000A046280055460993824635E00699114331
:104A70000691D8E792024F463A400A4319798B468D
:104A800003215F4639400A4316435A795201602197
:104A90000A40324399790902C026B6000E401643F7
:104AA000DA791203E021C9010A4016433443039A1C
:104AB00014432043624607995050042A2AD09A7C16
:104AC0000599914200D831E1597A0A3504239B4671
:104AD000DC440F2900D929E10906F0231B05194000
:104AE0002B002E783604FF200004064068788024CE
:104AF000002800D1049C987808270397002801D14A
:104B000004980390D878834610205F46002FB1D1D7
:104B10000498AFE744465546099B524AD25C9146F9
:104B20005146503150464130002700220126B246FE
:104B30000226FF36B34680267602B046A4461C0005
:104B40004B460FE00678002E07D0934200D8E7E0EE
:104B5000022E14D0564696403743013201310230BE
:104B6000082A10D00E78002EECD0934200D8D5E061
:104B70004646964037430678002EE9D1EDE75E467B
:104B800096403743E9E79946230064466A7E12015E
:104B900030211140287E072202401143002280204C
:104BA00040020E0002E00132042A0BD0A918097D50
:104BB0000029F8D00599914200DCB3E00100914052
:104BC0000E43F0E7B246019802000432343000216F
:104BD00002C28242FCD100220198426382639900A2
:104BE000224A88500460A022A95C643A81540DA92D
:104BF000AA7A0A701E4AD65C30001E4B98473000D5
:104C00001D4B98474B46002B3CDD2E005836983301
:104C10009846A84401239946AB464546A046089CC1
:104C200003E001340436AC422AD02378002BF8D0BC
:104C30000CAB4A469A7000230CAAD37013002022B2
:104C4000B21812781A704A465A70307819000B4B15
:104C50009847E6E7B1470000000400401C8B0000C5
:104C6000308B00003C8B0000288B0000B803002034
:104C70002C8B000059460000CD4500005147000034
:104C800044465D460A9B1B030B9A12021343029A89
:104C9000134323600422A3681A42FCD1FF2323712B
:104CA0000422A3681A42FCD16B461B7E63710E9BE3
:104CB000E3600F9B2361A7611D4AA3681342FCD1E7
:104CC0005346E3631022A3681A42FCD12B68636346
:104CD000184AA3681342FCD16B6823640598002826
:104CE00022DD1C350021144E32008A40A3681A428E
:104CF000FCD104CD0B0010339B00E3185A60013146
:104D00008842F1DC00202DE617202BE6172029E64B
:104D1000172027E6172025E6172023E6172021E68F
:104D200017201FE617201DE600201BE6172019E6B6
:104D30004000020080000400000108009200831877
:104D40005960034BD358426B1343436300207047B1
:104D5000408B000070B504000D000068094B9847B7
:104D6000094B1B5C1F221A4001239340074A136022
:104D7000AD00074BEA58A36B1343A36323689A6201
:104D800070BDC046B1470000708B000000E100E03C
:104D9000408B0000F0B5C64600B580000E4BC758EA
:104DA0003B68DE6ABB6B7A6B13401E4000240B4BE2
:104DB000984602E00434302C0AD04346E558354288
:104DC000F8D03B195B68380098473B68DD62F1E733
:104DD00004BC9046F0BDC046B8030020408B0000E4
:104DE00010B50020014B984710BDC046954D0000FE
:104DF00010B50120014B984710BDC046954D0000ED
:104E000010B50220014B984710BDC046954D0000DB
:104E1000FEE70000F8B52A4A2A4B9A4211D01A0040
:104E2000294B9A420DD2294A03339B1A9B0801331E
:104E30009B000022234822498C58845004329A4215
:104E4000FAD1234A234B9A420AD2D34321495B1811
:104E500003218B4304339B18002102C29342FCD1EF
:104E60001D4AFF211D4B8B439360FD3990235B004E
:104E70001B4AD1501B4AD3780325AB43022423435A
:104E8000D370D3780C27BB4308263343D370164B1B
:104E9000987B30229043202210439873997BB9432A
:104EA000314399739A7BAA4322439A730F4A5368FA
:104EB00080210B4353600E4B98470E4B9847FEE7FB
:104EC000B88F0000000000207800002004000020BF
:104ED000780000202C04002000ED00E0000000001D
:104EE0000070004100500041004800410040004176
:104EF000D5680000A9540000F0B5C64600B50C0006
:104F0000904600280FD1002A11DD8F18094E0A4D56
:104F1000306821002B6898470134BC42F8D14046E4
:104F200004BC9046F0BD01235B429846F7E78046FB
:104F3000F5E7C046CC030020C4030020F0B5C64608
:104F400000B50E0015000138022810D8002A11D033
:104F500000240C4B98460C4F43461868315D3B6863
:104F60009847002808DB0134A542F5D106E001246A
:104F7000644203E0140001E001246442200004BC08
:104F80009046F0BDCC030020C80300200300064A71
:104F90001268002A04D0044A1068C31813607047CE
:104FA0000249014A1160F6E7000100203024002088
:104FB00001204042704780239B014B6000207047D6
:104FC00001207047002070470260016100224260AA
:104FD0008360009BC360704710B504004268002ADC
:104FE00000D110BD0169C068A368984700236360C1
:104FF000F7E7000070B504000D00036842689B1AD3
:10500000002B05DD22696368591C6160D55470BDB1
:10501000014B9847F6E7C046D94F000070B506002F
:105020000C000912024DA84761B23000A84770BDBC
:10503000F54F0000F8B506000C00002A08D08D18C6
:10504000044F002161563000B8470134A542F8D121
:10505000F8BDC046F54F0000024A136801331360E3
:105060007047C0460401002064234380002303707E
:1050700043707047F0B5C64600B5ACB00D006E4643
:105080001D4B6A4692CB92C26B8843651430040074
:105090002B789B00995917001000184B9847002057
:1050A000174B9847174B1B7ADBB2D840804669886C
:1050B000FA200002144B984701004046134B9847D2
:1050C00078600523FB722B789B0099593A002000E9
:1050D0000F4B98476A780832D2B20E4920000E4B27
:1050E000984769780831C9B220000C4B98472CB01A
:1050F00004BC9046F0BDC046748B0000E54700003C
:105100004145000000040040A966000095650000CC
:1051100031490000595000003D4D0000554D000040
:105120004269022193681942FCD1136802210B43A2
:105130001360704770B504000578E80702D50120B8
:10514000404270BD61602900022081432170A2604D
:10515000616D1800044B9847E060237801221343E7
:1051600023700020EDE7C0469565000070B58B0008
:105170005D18AD00295C0226314329544419416D64
:105180001000034B9847034B1B68C018206170BD8B
:1051900095650000040100208B00591889000B5C04
:1051A000022293430B54704770B504000378DB0769
:1051B00007D503789B0704D5114B1B680269D31AE6
:1051C00000D470BD03785B07FBD40378042213433B
:1051D0000370C368826800214568A847E368002B14
:1051E00008D0074A1268D318236123780422934316
:1051F0002370E6E72378022293432370F5E7C04645
:1052000004010020034B1B683F2B02DC0133014AE1
:10521000136070473002002010B5014B984710BD55
:10522000E158000010B5014B984710BD81640000A3
:1052300010B582B02C2803D032281CD002B010BD8B
:105240000B78012B11D0002BF8D11248124B984744
:10525000FF230093114B02220A211148114CA04751
:1052600001211148114B9847E8E711480A4B98472C
:10527000104B9847E2E78B784A780878C978009114
:1052800001000D480D4CA0470D4907480D4B9847AC
:10529000D4E7C046B08E0000E56B0000C48E00006D
:1052A000D08E0000F5130000BC0100204161000019
:1052B000A08E000011140000DC8E0000C96A0000FE
:1052C000108D00003559000070B582B005000E0049
:1052D00000226B46DA80064C6B46991D2800A047D9
:1052E0000028F9D16B4606331B88337002B070BDBD
:1052F000F93D000070B505008CB2034E2100280076
:10530000B0470028FAD170BDCD3D0000F0B587B0A0
:1053100005001400012960D042DD052900D186E096
:10532000062900D08CE01068002800D188E093683E
:10533000002B00D184E027224249434B9847051EA9
:105340007ED16368272B08DD2726404F2368985DB0
:10535000B84701366368B342F8DC3D483D4B984797
:10536000A6683D4930003D4B984700284AD03C494B
:1053700030003A4B984700284ED180221204394B16
:105380005A61E368002B07DD304EA368585DB047D3
:105390000135E368AB42F8DC3348344B98474FE0C3
:1053A00000294DD11368002B0DDB002305930493D6
:1053B0000393029301932E4B00932E4B2E4A01210F
:1053C0002E4CA0473CE02E4C21002E48214B984704
:1053D000210028002C4B984732E0117800290DD18C
:1053E00000221849294B9847294931228B5C022019
:1053F00003438B5427481D4B984721E02648154B03
:1054000098471DE0174E80273F047761FA208000FF
:10541000224B9847B761B4E7214930000F4B9847BA
:105420000028AED1802212040E4B9A61A9E71D48D4
:105430000E4B9847164931228B5C022083438B54D4
:1054400007B0F0BDE08D0000FF6D0000FD6A0000B8
:105450006C8E0000C96A0000748E0000CD6D0000E3
:10546000848E0000004400412C8C0000E56B00009D
:105470007C8D0000248D0000648D0000495A0000DE
:10548000108D0000A88D000035590000A15E0000BD
:1054900008010020088E0000388E00005501000031
:1054A000888E00008C8E0000F0B5B1B0744B984728
:1054B00003AA8023DB05039300235360FF2111819E
:1054C00000219372D3720125242015540130155404
:1054D00001301354013013549362053013540130DA
:1054E000135453611382D3761176117751761323B7
:1054F00093765177C4239B03D36001235B421363EC
:105500005363604B9363604BD363E1235B0213628D
:105510005E4C5F4B1C605F495F4B19605F49604B9D
:10552000196060492000604B9847604F3B6898685D
:1055300000215F4EB0473B6858680021B047012208
:105540005C4920005C4B9847266830005B4B9847CD
:105550001F23184085405A4B1D602268D369002BD9
:10556000FCD133680222134333605648564B9847A8
:1055700003AC2000554B9847554D21002800554B52
:1055800098472800544B9847544B9847544B98479A
:105590002000544B98476560534BE36080232361A0
:1055A000524B238021005248524B9847011E25DB65
:1055B00051494F48514B9847011E23DB504B9847A8
:1055C000504D29005048514CA0472B00504A51499A
:1055D00003A8514DA84703A95048A047182200210D
:1055E0002AA84F4B98474F4B2A932AA84E4B9847CF
:1055F000011E0BD04D48454B9847FEE74C48434BA6
:105600009847FEE74B48414B9847FEE74A4B98477F
:105610004A494B484B4B9847FF2300934A4B022281
:105620000A214A484A4CA0471AAC4A4B220023CBD5
:1056300023C223CB23C203CB03C22022002122A8F2
:10564000374B98472000444B98470500434F0024B0
:1056500005E02000424B98471D48424B98473B6A63
:105660001B02F6D4802212043F4B9A6101940094ED
:105670002B001AAA03A91E483C4EB047E9E7C046D2
:105680008547000003002A0003002B0008010020CA
:10569000CC030020F5520000C8030020C9520000CE
:1056A000C4030020001800428D3A000014000020BE
:1056B0001D6C000005520000693E000061350000CD
:1056C00000E100E0C08B0000E56B000069500000C5
:1056D000D00300207550000021510000150100008A
:1056E000012F0000215800003C010020B3F0FFFF13
:1056F000BC010020455800000D530000D1580000A7
:10570000D90100007C8D0000988C0000C96A00005F
:10571000A88C0000C48C0000896D0000CC8C0000B7
:10572000676900003152000065100000E88C00003D
:10573000308C0000648C0000912900001952000098
:1057400025520000D5290000C48E0000D08E000034
:10575000F5130000808B0000F16D000080440041D3
:105760005D110000A951000000440041F95C0000F7
:10577000031C0E3000B50E2819D800F001FF1614D6
:105780001210181B180E0C180E0E0A1D080000200F
:1057900014E0702011E016200FE00C200DE07920BD
:1057A0000BE0682009E00B2007E0102005E0002056
:1057B000834203DA052000E00220404200BD0000E1
:1057C000F8B5041C43342378051CD8071CD50426DF
:1057D000334323700220285692B200230C4FB8475F
:1057E000002805DA2378B34323700A4B98470DE06D
:1057F0002278142313400020042B07D1064B98472E
:10580000E86D064B9847F3E701204042F8BDC046DB
:10581000552B0000715700005D110000A9510000D8
:10582000074B4022038096239B00038102610023E3
:10583000202283704360C360426103767047C04694
:105840005B07000038B5041C0D1C002830D000296F
:105850002ED00B69002B2BD04B68002B28D00021B9
:105860007422164B9847201C154B5830291C1C22BB
:105870009847636E002B0BD12869124B98476066DE
:10588000002817D0231C43331A7820210A431A70AA
:105890002A89FA235B00534368680B49221C0B4D8D
:1058A000A847031C20650020834205DA1C2002E083
:1058B000162000E00C20404238BDC0466769000059
:1058C000316900001D6900004D6000003551000085
:1058D000002802D04165002001E0162040427047B8
:1058E000F0B5061C85B00F1C00240F4BE558002DA9
:1058F00015D0E91C301C0D4B984700280FD16A4683
:10590000022313802B1C58331B8801975BBA5380EA
:105910000220285669461022054B984702E00434BD
:105920001C2CE2D105B0F0BD34020020CD6D00008A
:10593000C52A0000F0B5041C89B00D1C002851D008
:1059400000294FD0081C394B984740284CD8211CBF
:1059500043310B780191DB07D90F6A46CEB2E01CC8
:105960001172002E42D10127291C314B2780984704
:10597000019A022013780199BB438343E322134029
:105980006A460B70127A231C483366641A709A7C3C
:105990005E80531E9A41D2B2391C264B9847A070A4
:1059A000002825DB244B8000C4502B1C1F78002FBF
:1059B00026D02022391C91430A1C413AD2B201332D
:1059C000052A0DD93A2F0BD02F2F09D02E2F02D117
:1059D000002EEBD00FE0302217409742E6D00AE0CD
:1059E0000126E3E7162004E05B2002E0782000E0D7
:1059F0001C20404217E0281C104B9847002012E062
:105A00006A4602231382231C58331B88281C5BBA66
:105A100053820B4B984705900220205604A9102270
:105A2000084B9847381C09B0F0BDC046F16D000026
:105A3000E16D0000E929000034020020652D00001E
:105A4000F92C0000C52A0000F0B595B002AF7B61CB
:105A50003B1C70331B78051CFB603B1C74331B78AC
:105A60003961FA61BB60002801D1162029E1C36EBB
:105A700068460733DB08DB00C01A854602AC7C6051
:105A80003C6E002CF1D02B1C43331B78D80700D47C
:105A900012E19A0700D511E11C070BD48B4E386E2A
:105AA000B047031CB861F8690E33341C002813D1C9
:105AB0001E1C1DE02B1C70331B78002B00D0FFE058
:105AC0002B1C43331B781A07E8D5814B00209847DD
:105AD000E86D804B9847F3E7F869B047BE697B698A
